{
  "transactions": [
    {
      "hash": "0x31f1238e8033d4b876e37e3e4d248702924f2f5f98827dba2cf9b5b61cf2b60c",
      "transactionType": "CALL",
      "contractName": null,
      "contractAddress": "0x1613beb3b2c4f22ee086b2b38c1476a3ce7f78e8",
      "function": "approve(address,uint256)",
      "arguments": [
        "0x82e01223d51Eb87e16A03E24687EDF0F294da6f1",
        "1000000"
      ],
      "transaction": {
        "from": "0xf39fd6e51aad88f6f4ce6ab8827279cfffb92266",
        "to": "0x1613beb3b2c4f22ee086b2b38c1476a3ce7f78e8",
        "gas": "0x8d87",
        "value": "0x0",
        "input": "0x095ea7b300000000000000000000000082e01223d51eb87e16a03e24687edf0f294da6f100000000000000000000000000000000000000000000000000000000000f4240",
        "nonce": "0x3d",
        "chainId": "0x7a69"
      },
      "additionalContracts": [],
      "isFixedGasLimit": false
    }
  ],
  "receipts": [
    {
      "status": "0x1",
      "cumulativeGasUsed": "0x6677",
      "logs": [
        {
          "address": "0x1613beb3b2c4f22ee086b2b38c1476a3ce7f78e8",
          "topics": [
            "0x8c5be1e5ebec7d5bd14f71427d1e84f3dd0314c0f7b2291e5b200ac8c7c3b925",
            "0x000000000000000000000000f39fd6e51aad88f6f4ce6ab8827279cfffb92266",
            "0x00000000000000000000000082e01223d51eb87e16a03e24687edf0f294da6f1"
          ],
          "data": "0x00000000000000000000000000000000000000000000000000000000000f4240",
          "blockHash": "0x01925617d30042a3fd21861b1275db0f370b4fb0eb1ce5ca8d0cea308fe29e8f",
          "blockNumber": "0x34",
          "blockTimestamp": "0x676a7ea1",
          "transactionHash": "0x31f1238e8033d4b876e37e3e4d248702924f2f5f98827dba2cf9b5b61cf2b60c",
          "transactionIndex": "0x0",
          "logIndex": "0x0",
          "removed": false
        }
      ],
      "logsBloom": "0x00000000000000000000000000000000000000000000000000000000000000000000000000000000000000000000000000000000000000000000000000200000000000000000000000000000000000000000000000000000000000000000000008000000000000000000010100000000000000000100000000000000000000000000000000000000000000000000000000000000000000000000000000000040020000000000000000000000000000000000000000000000000000000000000000000000010000200000000000000000000000002000000000000000000000000010000000000000000000000000000000000000000000000000000000001000",
      "type": "0x2",
      "transactionHash": "0x31f1238e8033d4b876e37e3e4d248702924f2f5f98827dba2cf9b5b61cf2b60c",
      "transactionIndex": "0x0",
      "blockHash": "0x01925617d30042a3fd21861b1275db0f370b4fb0eb1ce5ca8d0cea308fe29e8f",
      "blockNumber": "0x34",
      "gasUsed": "0x6677",
      "effectiveGasPrice": "0x10d316",
      "blobGasPrice": "0x1",
      "from": "0xf39fd6e51aad88f6f4ce6ab8827279cfffb92266",
      "to": "0x1613beb3b2c4f22ee086b2b38c1476a3ce7f78e8",
      "contractAddress": null
    }
  ],
  "libraries": [],
  "pending": [],
  "returns": {},
  "timestamp": 1735032481,
  "chain": 31337,
  "commit": "5cbaae6"
}